1000000              201901      841120      42212000000034074 VRVoce retr.0004STRAORDINARIO AL 20%                              10253520018     SELFBU0101        000000000DA016001            TR001               TR999                 000                 000                 000                 000                 000                                                               
1000000              201901      841120      42212000000100196 VRVoce retr.0006STRAORD.30%                                       10253520018     SELFBU0101        000000000DA016001            TR001               TR999                 000                 000                 000                 000                 000                                                               
1000000              201901      841120      42212000000004044 VRVoce retr.0043STR.60%                                           10253520018     SELFBU0101        000000000DA016001            TR001               TR999                 000                 000                 000                 000                 000                                                               
1000000              201901      422120      42413000000009900 VRVoce retr.0078CESSIONE QUOTA STIP.                              10253520018     SELFBU0101        000000000DA016001            TR001               TR999                 000                 000                 000                 000                 000                                                               
1000000              201901      431110      42212000000084422 VRVoce retr.9160Assegni familiari                                 10253520018     SELFBU0101        000000000DA016001            TR001               TR999                 000                 000                 000                 000                 000                                                               
1000000              201901      422120      84111000000000556 VRVoce retr.9960Arrotond. mese pr.                                10253520018     SELFBU0101        000000000DA016001            TR001               TR999                 000                 000                 000                 000                 000                                                               
1000000              201901      841110      42212000000000808 VRVoce retr.9980Arrotond. del mese                                10253520018     SELFBU0101        000000000DA016001            TR001               TR999                 000                 000                 000                 000                 000                                                               
1000000              201901      841210      43114000000024260 I1INAIL mat.0000Contr.INAIL maturato                              10253520018     SELFBU0101        000000000DA016001            TR001               TR999                 000                 000                 000                 000                 000                                                               
1000000              201901      841110      42313000000110466 F1FE Mat.   0001Ferie                                             10253520018     SELFBU0101        000000000DA016001            TR001               TR999                 000                 000                 000                 000                 000                                                               
1000000              201901      841110      42313000000023274 F1FE Mat.   0002Permessi Ex Festivita'                            10253520018     SELFBU0101        000000000DA016001            TR001               TR999                 000                 000                 000                 000                 000                                                               
1000000              201901      841110      42313000000052366 F1FE Mat.   0003Permessi R.O.L.                                   10253520018     SELFBU0101        000000000DA016001            TR001               TR999                 000                 000                 000                 000                 000                                                               
1000000              201901      841110      42311000000125090 M1MA Mat.   0001Gratifica Natalizia                               10253520018     SELFBU0101        000000000DA016001            TR001               TR999                 000                 000                 000                 000                 000                                                               
1000000              201901      841110      42312000000125095 M1MA Mat.   000214ma Mensilita'                                   10253520018     SELFBU0101        000000000DA016001            TR001               TR999                 000                 000                 000                 000                 000                                                               
1000000              201901      841210      43213000000011639 F2FE Mat.Ctr0001Ferie                                             10253520018     SELFBU0101        000000000DA016001            TR001               TR999                 000                 000                 000                 000                 000                                                               
1000000              201901      841210      43213000000006618 F2FE Mat.Ctr0002Permessi Ex Festivita'                            10253520018     SELFBU0101        000000000DA016001            TR001               TR999                 000                 000                 000                 000                 000                                                               
1000000              201901      841210      43213000000014894 F2FE Mat.Ctr0003Permessi R.O.L.                                   10253520018     SELFBU0101        000000000DA016001            TR001               TR999                 000                 000                 000                 000                 000                                                               
1000000              201901      841210      43211000000035584 M2MA Mat.Ctr0001Gratifica Natalizia                               10253520018     SELFBU0101        000000000DA016001            TR001               TR999                 000                 000                 000                 000                 000                                                               
1000000              201901      841210      43212000000035591 M2MA Mat.Ctr000214ma Mensilita'                                   10253520018     SELFBU0101        000000000DA016001            TR001               TR999                 000                 000                 000                 000                 000                                                               
1000000              201901      841210      43213000000000541 F3FE Mat.Inl0001Ferie                                             10253520018     SELFBU0101        000000000DA016001            TR001               TR999                 000                 000                 000                 000                 000                                                               
1000000              201901      841210      43213000000000334 F3FE Mat.Inl0002Permessi Ex Festivita'                            10253520018     SELFBU0101        000000000DA016001            TR001               TR999                 000                 000                 000                 000                 000                                                               
1000000              201901      841210      43213000000000760 F3FE Mat.Inl0003Permessi R.O.L.                                   10253520018     SELFBU0101        000000000DA016001            TR001               TR999                 000                 000                 000                 000                 000                                                               
1000000              201901      841210      43211000000001808 M3MA Mat.Inl0001Gratifica Natalizia                               10253520018     SELFBU0101        000000000DA016001            TR001               TR999                 000                 000                 000                 000                 000                                                               
1000000              201901      841210      43212000000001810 M3MA Mat.Inl000214ma Mensilita'                                   10253520018     SELFBU0101        000000000DA016001            TR001               TR999                 000                 000                 000                 000                 000                                                               
1000000              201901      423130      84111000000073128 F4FE Liq.   0001Ferie                                             10253520018     SELFBU0101        000000000DA016001            TR001               TR999                 000                 000                 000                 000                 000                                                               
1000000              201901      423130      84111000000041837 F4FE Liq.   0002Permessi Ex Festivita'                            10253520018     SELFBU0101        000000000DA016001            TR001               TR999                 000                 000                 000                 000                 000                                                               
1000000              201901      423130      84111000000016957 F4FE Liq.   0003Permessi R.O.L.                                   10253520018     SELFBU0101        000000000DA016001            TR001               TR999                 000                 000                 000                 000                 000                                                               
1000000              201901      432130      84121000000012417 F5FE Liq.Ctr0002Permessi Ex Festivita'                            10253520018     SELFBU0101        000000000DA016001            TR001               TR999                 000                 000                 000                 000                 000                                                               
1000000              201901      432130      84121000000004193 F5FE Liq.Ctr0003Permessi R.O.L.                                   10253520018     SELFBU0101        000000000DA016001            TR001               TR999                 000                 000                 000                 000                 000                                                               
1000000              201901      432130      84121000000000605 F6FE Liq.Inl0002Permessi Ex Festivita'                            10253520018     SELFBU0101        000000000DA016001            TR001               TR999                 000                 000                 000                 000                 000                                                               
1000000              201901      432130      84121000000000246 F6FE Liq.Inl0003Permessi R.O.L.                                   10253520018     SELFBU0101        000000000DA016001            TR001               TR999                 000                 000                 000                 000                 000                                                               
1000000              201901      841310      51111000000103260 T1TFR Mat.  0000TFR- Quota maturata                               10253520018     SELFBU0101        000000000DA016001            TR001               TR999                 000                 000                 000                 000                 000                                                               
1000000              201901      511110      44513000000001235 T2Imp.c/DIT.0000TFR- Imp.sos.c/Ditta                              10253520018     SELFBU0101        000000000DA016001            TR001               TR999                 000                 000                 000                 000                 000                                                               
1000000              201901      841310      42314000000009260 T3TFRsuRatei0001Gratifica Natalizia                               10253520018     SELFBU0101        000000000DA016001            TR001               TR999                 000                 000                 000                 000                 000                                                               
1000000              201901      841310      42314000000009259 T3TFRsuRatei000214ma Mensilita'                                   10253520018     SELFBU0101        000000000DA016001            TR001               TR999                 000                 000                 000                 000                 000                                                               
1000000              201901      841310      51111000000007265 T4Riv.c/DIT.0000TFR- Riv.mat. c/Ditta                             10253520018     SELFBU0101        000000000DA016001            TR001               TR999                 000                 000                 000                 000                 000                                                               
1000000              201901      445130      44311000000004458 ISImpSostTFR0015C/dit.S.do Imp.sost.TFR                           10253520018     SELFBU0101        000000000DA016001            TR001               TR999                 000                 000                 000                 000                 000                                                               
1000000              201901      841110      42212000001539898 RERetribuz. 0001Retribuzioni                                      10253520018     SELFBU0101        000000000DA016001            TR001               TR999                 000                 000                 000                 000                 000                                                               
1000000              201901      841210      43119000000014000 EAEnte ditta2002FONDO "EST" (Ass.San.Terz/Tur)                    10253520018     SELFBU0101        000000000DA016001            TR001               TR999                 000                 000                 000                 000                 000                                                               
1000000              201901      841210      43118000000002854 EAEnte ditta5300Ente Bilat. Turismo                               10253520018     SELFBU0101        000000000DA016001            TR001               TR999                 000                 000                 000                 000                 000                                                               
1000000              201901      841210      43111000000471315 EAEnte ditta9001I.N.P.S.                                          10253520018     SELFBU0101        000000000DA016001            TR001               TR999                 000                 000                 000                 000                 000                                                               
1000000              201901      431110      43111000000001320 SAVersDifDit9001I.N.P.S.                                          10253520018     SELFBU0101        000000000DA016001            TR001               TR999                 000                 000                 000                 000                 000                                                               
1000000              201901      422120      43118000000002849 EDEnte dip. 5300Ente Bilat. Turismo                               10253520018     SELFBU0101        000000000DA016001            TR001               TR999                 000                 000                 000                 000                 000                                                               
1000000              201901      422120      43111000000157871 EDEnte dip. 9001I.N.P.S.                                          10253520018     SELFBU0101        000000000DA016001            TR001               TR999                 000                 000                 000                 000                 000                                                               
1000000              201901      841210      43111000000001180 RAVersMPrDit9001I.N.P.S.                                          10253520018     SELFBU0101        000000000DA016001            TR001               TR999                 000                 000                 000                 000                 000                                                               
1000000              201901      422120      44311000000064766 FITr.fisc.  0000Trattenute fiscali                                10253520018     SELFBU0101        000000000DA016001            TR001               TR999                 000                 000                 000                 000                 000                                                               
1000000              201901      841120      42212000000016507 VRVoce retr.0004STRAORDINARIO AL 20%                              10253520018     SELFBU0101        000000000DA016002            TR001               TR999                 000                 000                 000                 000                 000                                                               
1000000              201901      841120      42212000000235794 VRVoce retr.0006STRAORD.30%                                       10253520018     SELFBU0101        000000000DA016002            TR001               TR999                 000                 000                 000                 000                 000                                                               
1000000              201901      841120      42212000000008337 VRVoce retr.0043STR.60%                                           10253520018     SELFBU0101        000000000DA016002            TR001               TR999                 000                 000                 000                 000                 000                                                               
1000000              201901      431110      42212000000019567 VRVoce retr.0657MALATTIA INPS 80%                                 10253520018     SELFBU0101        000000000DA016002            TR001               TR999                 000                 000                 000                 000                 000                                                               
1000000              201901      431110      42212000000252396 VRVoce retr.0660MATERNITA' INPS 80%                               10253520018     SELFBU0101        000000000DA016002            TR001               TR999                 000                 000                 000                 000                 000                                                               
1000000              201901      431110      42212000000046712 VRVoce retr.9160Assegni familiari                                 10253520018     SELFBU0101        000000000DA016002            TR001               TR999                 000                 000                 000                 000                 000                                                               
1000000              201901      422120      84111000000001065 VRVoce retr.9960Arrotond. mese pr.                                10253520018     SELFBU0101        000000000DA016002            TR001               TR999                 000                 000                 000                 000                 000                                                               
1000000              201901      841110      42212000000000660 VRVoce retr.9980Arrotond. del mese                                10253520018     SELFBU0101        000000000DA016002            TR001               TR999                 000                 000                 000                 000                 000                                                               
1000000              201901      841210      43114000000027888 I1INAIL mat.0000Contr.INAIL maturato                              10253520018     SELFBU0101        000000000DA016002            TR001               TR999                 000                 000                 000                 000                 000                                                               
1000000              201901      841110      42313000000104560 F1FE Mat.   0001Ferie                                             10253520018     SELFBU0101        000000000DA016002            TR001               TR999                 000                 000                 000                 000                 000                                                               
1000000              201901      841110      42313000000021135 F1FE Mat.   0002Permessi Ex Festivita'                            10253520018     SELFBU0101        000000000DA016002            TR001               TR999                 000                 000                 000                 000                 000                                                               
1000000              201901      841110      42313000000048368 F1FE Mat.   0003Permessi R.O.L.                                   10253520018     SELFBU0101        000000000DA016002            TR001               TR999                 000                 000                 000                 000                 000                                                               
1000000              201901      841110      42311000000094185 M1MA Mat.   0001Gratifica Natalizia                               10253520018     SELFBU0101        000000000DA016002            TR001               TR999                 000                 000                 000                 000                 000                                                               
1000000              201901      841110      42312000000094419 M1MA Mat.   000214ma Mensilita'                                   10253520018     SELFBU0101        000000000DA016002            TR001               TR999                 000                 000                 000                 000                 000                                                               
1000000              201901      841210      43213000000017839 F2FE Mat.Ctr0001Ferie                                             10253520018     SELFBU0101        000000000DA016002            TR001               TR999                 000                 000                 000                 000                 000                                                               
1000000              201901      841210      43213000000005835 F2FE Mat.Ctr0002Permessi Ex Festivita'                            10253520018     SELFBU0101        000000000DA016002            TR001               TR999                 000                 000                 000                 000                 000                                                               
1000000              201901      841210      43213000000013371 F2FE Mat.Ctr0003Permessi R.O.L.                                   10253520018     SELFBU0101        000000000DA016002            TR001               TR999                 000                 000                 000                 000                 000                                                               
1000000              201901      841210      43211000000025599 M2MA Mat.Ctr0001Gratifica Natalizia                               10253520018     SELFBU0101        000000000DA016002            TR001               TR999                 000                 000                 000                 000                 000                                                               
1000000              201901      841210      43212000000025678 M2MA Mat.Ctr000214ma Mensilita'                                   10253520018     SELFBU0101        000000000DA016002            TR001               TR999                 000                 000                 000                 000                 000                                                               
1000000              201901      841210      43213000000001396 F3FE Mat.Inl0001Ferie                                             10253520018     SELFBU0101        000000000DA016002            TR001               TR999                 000                 000                 000                 000                 000                                                               
1000000              201901      841210      43213000000000423 F3FE Mat.Inl0002Permessi Ex Festivita'                            10253520018     SELFBU0101        000000000DA016002            TR001               TR999                 000                 000                 000                 000                 000                                                               
1000000              201901      841210      43213000000000969 F3FE Mat.Inl0003Permessi R.O.L.                                   10253520018     SELFBU0101        000000000DA016002            TR001               TR999                 000                 000                 000                 000                 000                                                               
1000000              201901      841210      43211000000001840 M3MA Mat.Inl0001Gratifica Natalizia                               10253520018     SELFBU0101        000000000DA016002            TR001               TR999                 000                 000                 000                 000                 000                                                               
1000000              201901      841210      43212000000001846 M3MA Mat.Inl000214ma Mensilita'                                   10253520018     SELFBU0101        000000000DA016002            TR001               TR999                 000                 000                 000                 000                 000                                                               
1000000              201901      423130      84111000000045498 F4FE Liq.   0001Ferie                                             10253520018     SELFBU0101        000000000DA016002            TR001               TR999                 000                 000                 000                 000                 000                                                               
1000000              201901      423130      84111000000019504 F4FE Liq.   0002Permessi Ex Festivita'                            10253520018     SELFBU0101        000000000DA016002            TR001               TR999                 000                 000                 000                 000                 000                                                               
1000000              201901      423130      84111000000060449 F4FE Liq.   0003Permessi R.O.L.                                   10253520018     SELFBU0101        000000000DA016002            TR001               TR999                 000                 000                 000                 000                 000                                                               
1000000              201901      432130      84121000000005789 F5FE Liq.Ctr0002Permessi Ex Festivita'                            10253520018     SELFBU0101        000000000DA016002            TR001               TR999                 000                 000                 000                 000                 000                                                               
1000000              201901      432130      84121000000013049 F5FE Liq.Ctr0003Permessi R.O.L.                                   10253520018     SELFBU0101        000000000DA016002            TR001               TR999                 000                 000                 000                 000                 000                                                               
1000000              201901      432130      84121000000000433 F6FE Liq.Inl0002Permessi Ex Festivita'                            10253520018     SELFBU0101        000000000DA016002            TR001               TR999                 000                 000                 000                 000                 000                                                               
1000000              201901      432130      84121000000001005 F6FE Liq.Inl0003Permessi R.O.L.                                   10253520018     SELFBU0101        000000000DA016002            TR001               TR999                 000                 000                 000                 000                 000                                                               
1000000              201901      841310      51111000000092162 T1TFR Mat.  0000TFR- Quota maturata                               10253520018     SELFBU0101        000000000DA016002            TR001               TR999                 000                 000                 000                 000                 000                                                               
1000000              201901      511110      44513000000000599 T2Imp.c/DIT.0000TFR- Imp.sos.c/Ditta                              10253520018     SELFBU0101        000000000DA016002            TR001               TR999                 000                 000                 000                 000                 000                                                               
1000000              201901      841310      42314000000006970 T3TFRsuRatei0001Gratifica Natalizia                               10253520018     SELFBU0101        000000000DA016002            TR001               TR999                 000                 000                 000                 000                 000                                                               
1000000              201901      841310      42314000000006987 T3TFRsuRatei000214ma Mensilita'                                   10253520018     SELFBU0101        000000000DA016002            TR001               TR999                 000                 000                 000                 000                 000                                                               
1000000              201901      841310      51111000000003515 T4Riv.c/DIT.0000TFR- Riv.mat. c/Ditta                             10253520018     SELFBU0101        000000000DA016002            TR001               TR999                 000                 000                 000                 000                 000                                                               
1000000              201901      445130      44311000000000097 ISImpSostTFR0015C/dit.S.do Imp.sost.TFR                           10253520018     SELFBU0101        000000000DA016002            TR001               TR999                 000                 000                 000                 000                 000                                                               
1000000              201901      841110      42212000001121618 RERetribuz. 0001Retribuzioni                                      10253520018     SELFBU0101        000000000DA016002            TR001               TR999                 000                 000                 000                 000                 000                                                               
1000000              201901      841210      43119000000013200 EAEnte ditta2002FONDO "EST" (Ass.San.Terz/Tur)                    10253520018     SELFBU0101        000000000DA016002            TR001               TR999                 000                 000                 000                 000                 000                                                               
1000000              201901      841210      43118000000002680 EAEnte ditta5300Ente Bilat. Turismo                               10253520018     SELFBU0101        000000000DA016002            TR001               TR999                 000                 000                 000                 000                 000                                                               
1000000              201901      841210      43111000000390759 EAEnte ditta9001I.N.P.S.                                          10253520018     SELFBU0101        000000000DA016002            TR001               TR999                 000                 000                 000                 000                 000                                                               
1000000              201901      431110      43111000000001320 SAVersDifDit9001I.N.P.S.                                          10253520018     SELFBU0101        000000000DA016002            TR001               TR999                 000                 000                 000                 000                 000                                                               
1000000              201901      422120      43118000000002678 EDEnte dip. 5300Ente Bilat. Turismo                               10253520018     SELFBU0101        000000000DA016002            TR001               TR999                 000                 000                 000                 000                 000                                                               
1000000              201901      422120      43111000000126689 EDEnte dip. 9001I.N.P.S.                                          10253520018     SELFBU0101        000000000DA016002            TR001               TR999                 000                 000                 000                 000                 000                                                               
1000000              201901      841210      43111000000001210 RAVersMPrDit9001I.N.P.S.                                          10253520018     SELFBU0101        000000000DA016002            TR001               TR999                 000                 000                 000                 000                 000                                                               
1000000              201901      422120      44311000000055459 FITr.fisc.  0000Trattenute fiscali                                10253520018     SELFBU0101        000000000DA016002            TR001               TR999                 000                 000                 000                 000                 000                                                               
1000000              201901      841120      42212000000034133 VRVoce retr.0004STRAORDINARIO AL 20%                              10253520018     SELFBU0101        000000000DA016003            TR001               TR999                 000                 000                 000                 000                 000                                                               
1000000              201901      841120      42212000000115191 VRVoce retr.0006STRAORD.30%                                       10253520018     SELFBU0101        000000000DA016003            TR001               TR999                 000                 000                 000                 000                 000                                                               
1000000              201901      431110      42212000000002578 VRVoce retr.0657MALATTIA INPS 80%                                 10253520018     SELFBU0101        000000000DA016003            TR001               TR999                 000                 000                 000                 000                 000                                                               
1000000              201901      431110      42212000000025833 VRVoce retr.9160Assegni familiari                                 10253520018     SELFBU0101        000000000DA016003            TR001               TR999                 000                 000                 000                 000                 000                                                               
1000000              201901      422120      84111000000000709 VRVoce retr.9960Arrotond. mese pr.                                10253520018     SELFBU0101        000000000DA016003            TR001               TR999                 000                 000                 000                 000                 000                                                               
1000000              201901      841110      42212000000000601 VRVoce retr.9980Arrotond. del mese                                10253520018     SELFBU0101        000000000DA016003            TR001               TR999                 000                 000                 000                 000                 000                                                               
1000000              201901      841210      43114000000018785 I1INAIL mat.0000Contr.INAIL maturato                              10253520018     SELFBU0101        000000000DA016003            TR001               TR999                 000                 000                 000                 000                 000                                                               
1000000              201901      841110      42313000000074591 F1FE Mat.   0001Ferie                                             10253520018     SELFBU0101        000000000DA016003            TR001               TR999                 000                 000                 000                 000                 000                                                               
1000000              201901      841110      42313000000016683 F1FE Mat.   0002Permessi Ex Festivita'                            10253520018     SELFBU0101        000000000DA016003            TR001               TR999                 000                 000                 000                 000                 000                                                               
1000000              201901      841110      42313000000037535 F1FE Mat.   0003Permessi R.O.L.                                   10253520018     SELFBU0101        000000000DA016003            TR001               TR999                 000                 000                 000                 000                 000                                                               
1000000              201901      841110      42311000000089665 M1MA Mat.   0001Gratifica Natalizia                               10253520018     SELFBU0101        000000000DA016003            TR001               TR999                 000                 000                 000                 000                 000                                                               
1000000              201901      841110      42312000000089664 M1MA Mat.   000214ma Mensilita'                                   10253520018     SELFBU0101        000000000DA016003            TR001               TR999                 000                 000                 000                 000                 000                                                               
1000000              201901      841210      43213000000006647 F2FE Mat.Ctr0001Ferie                                             10253520018     SELFBU0101        000000000DA016003            TR001               TR999                 000                 000                 000                 000                 000                                                               
1000000              201901      841210      43213000000007810 F2FE Mat.Ctr0002Permessi Ex Festivita'                            10253520018     SELFBU0101        000000000DA016003            TR001               TR999                 000                 000                 000                 000                 000                                                               
1000000              201901      841210      43213000000014349 F2FE Mat.Ctr0003Permessi R.O.L.                                   10253520018     SELFBU0101        000000000DA016003            TR001               TR999                 000                 000                 000                 000                 000                                                               
1000000              201901      841210      43211000000026577 M2MA Mat.Ctr0001Gratifica Natalizia                               10253520018     SELFBU0101        000000000DA016003            TR001               TR999                 000                 000                 000                 000                 000                                                               
1000000              201901      841210      43212000000032660 M2MA Mat.Ctr000214ma Mensilita'                                   10253520018     SELFBU0101        000000000DA016003            TR001               TR999                 000                 000                 000                 000                 000                                                               
1000000              201901      841210      43213000000000589 F3FE Mat.Inl0001Ferie                                             10253520018     SELFBU0101        000000000DA016003            TR001               TR999                 000                 000                 000                 000                 000                                                               
1000000              201901      841210      43213000000000510 F3FE Mat.Inl0002Permessi Ex Festivita'                            10253520018     SELFBU0101        000000000DA016003            TR001               TR999                 000                 000                 000                 000                 000                                                               
1000000              201901      841210      43213000000000857 F3FE Mat.Inl0003Permessi R.O.L.                                   10253520018     SELFBU0101        000000000DA016003            TR001               TR999                 000                 000                 000                 000                 000                                                               
1000000              201901      841210      43211000000001372 M3MA Mat.Inl0001Gratifica Natalizia                               10253520018     SELFBU0101        000000000DA016003            TR001               TR999                 000                 000                 000                 000                 000                                                               
1000000              201901      841210      43212000000001906 M3MA Mat.Inl000214ma Mensilita'                                   10253520018     SELFBU0101        000000000DA016003            TR001               TR999                 000                 000                 000                 000                 000                                                               
1000000              201901      423130      84111000000075355 F4FE Liq.   0001Ferie                                             10253520018     SELFBU0101        000000000DA016003            TR001               TR999                 000                 000                 000                 000                 000                                                               
1000000              201901      423130      84111000000082190 F4FE Liq.   0002Permessi Ex Festivita'                            10253520018     SELFBU0101        000000000DA016003            TR001               TR999                 000                 000                 000                 000                 000                                                               
1000000              201901      423130      84111000000013543 F4FE Liq.   0003Permessi R.O.L.                                   10253520018     SELFBU0101        000000000DA016003            TR001               TR999                 000                 000                 000                 000                 000                                                               
1000000              201901      432130      84121000000022332 F5FE Liq.Ctr0002Permessi Ex Festivita'                            10253520018     SELFBU0101        000000000DA016003            TR001               TR999                 000                 000                 000                 000                 000                                                               
1000000              201901      432130      84121000000002859 F5FE Liq.Ctr0003Permessi R.O.L.                                   10253520018     SELFBU0101        000000000DA016003            TR001               TR999                 000                 000                 000                 000                 000                                                               
1000000              201901      432130      84121000000001080 F6FE Liq.Inl0002Permessi Ex Festivita'                            10253520018     SELFBU0101        000000000DA016003            TR001               TR999                 000                 000                 000                 000                 000                                                               
1000000              201901      432130      84121000000000106 F6FE Liq.Inl0003Permessi R.O.L.                                   10253520018     SELFBU0101        000000000DA016003            TR001               TR999                 000                 000                 000                 000                 000                                                               
1000000              201901      841310      20393700000005873 ETEnte TFR  5155SANPAOLO VITA IL MIO DOMANI                       10253520018     SELFBU0101        000000000DA016003            TR001               TR999                 000                 000                 000                 000                 000                                                               
1000000              201901      841310      51111000000067868 T1TFR Mat.  0000TFR- Quota maturata                               10253520018     SELFBU0101        000000000DA016003            TR001               TR999                 000                 000                 000                 000                 000                                                               
1000000              201901      511110      44513000000001061 T2Imp.c/DIT.0000TFR- Imp.sos.c/Ditta                              10253520018     SELFBU0101        000000000DA016003            TR001               TR999                 000                 000                 000                 000                 000                                                               
1000000              201901      841310      42314000000006638 T3TFRsuRatei0001Gratifica Natalizia                               10253520018     SELFBU0101        000000000DA016003            TR001               TR999                 000                 000                 000                 000                 000                                                               
1000000              201901      841310      42314000000006638 T3TFRsuRatei000214ma Mensilita'                                   10253520018     SELFBU0101        000000000DA016003            TR001               TR999                 000                 000                 000                 000                 000                                                               
1000000              201901      841310      51111000000006243 T4Riv.c/DIT.0000TFR- Riv.mat. c/Ditta                             10253520018     SELFBU0101        000000000DA016003            TR001               TR999                 000                 000                 000                 000                 000                                                               
1000000              201901      445130      44311000000005274 ISImpSostTFR0015C/dit.S.do Imp.sost.TFR                           10253520018     SELFBU0101        000000000DA016003            TR001               TR999                 000                 000                 000                 000                 000                                                               
1000000              201901      841110      42212000001122942 RERetribuz. 0001Retribuzioni                                      10253520018     SELFBU0101        000000000DA016003            TR001               TR999                 000                 000                 000                 000                 000                                                               
1000000              201901      841210      43119000000013200 EAEnte ditta2002FONDO "EST" (Ass.San.Terz/Tur)                    10253520018     SELFBU0101        000000000DA016003            TR001               TR999                 000                 000                 000                 000                 000                                                               
1000000              201901      841210      43118000000002118 EAEnte ditta5300Ente Bilat. Turismo                               10253520018     SELFBU0101        000000000DA016003            TR001               TR999                 000                 000                 000                 000                 000                                                               
1000000              201901      841210      43111000000375538 EAEnte ditta9001I.N.P.S.                                          10253520018     SELFBU0101        000000000DA016003            TR001               TR999                 000                 000                 000                 000                 000                                                               
1000000              201901      431110      43111000000001320 SAVersDifDit9001I.N.P.S.                                          10253520018     SELFBU0101        000000000DA016003            TR001               TR999                 000                 000                 000                 000                 000                                                               
1000000              201901      422120      43118000000002112 EDEnte dip. 5300Ente Bilat. Turismo                               10253520018     SELFBU0101        000000000DA016003            TR001               TR999                 000                 000                 000                 000                 000                                                               
1000000              201901      422120      43111000000118167 EDEnte dip. 9001I.N.P.S.                                          10253520018     SELFBU0101        000000000DA016003            TR001               TR999                 000                 000                 000                 000                 000                                                               
1000000              201901      841210      43111000000001210 RAVersMPrDit9001I.N.P.S.                                          10253520018     SELFBU0101        000000000DA016003            TR001               TR999                 000                 000                 000                 000                 000                                                               
1000000              201901      422120      44311000000095590 FITr.fisc.  0000Trattenute fiscali                                10253520018     SELFBU0101        000000000DA016003            TR001               TR999                 000                 000                 000                 000                 000                                                               
1000000              201901      841120      42212000000052044 VRVoce retr.0004STRAORDINARIO AL 20%                              10253520018     SELFBU0101        000000000DA016004            TR001               TR999                 000                 000                 000                 000                 000                                                               
1000000              201901      841120      42212000000282268 VRVoce retr.0006STRAORD.30%                                       10253520018     SELFBU0101        000000000DA016004            TR001               TR999                 000                 000                 000                 000                 000                                                               
1000000              201901      841120      42212000000034477 VRVoce retr.0043STR.60%                                           10253520018     SELFBU0101        000000000DA016004            TR001               TR999                 000                 000                 000                 000                 000                                                               
1000000              201901      431110      42212000000146540 VRVoce retr.0657MALATTIA INPS 80%                                 10253520018     SELFBU0101        000000000DA016004            TR001               TR999                 000                 000                 000                 000                 000                                                               
1000000              201901      431130      42212000000031374 VRVoce retr.0805INFORT.INAIL  60%                                 10253520018     SELFBU0101        000000000DA016004            TR001               TR999                 000                 000                 000                 000                 000                                                               
1000000              201901      422120      93119000000000300 VRVoce retr.0852ADDEB. DUPLICATO BADGE                            10253520018     SELFBU0101        000000000DA016004            TR001               TR999                 000                 000                 000                 000                 000                                                               
1000000              201901      511110      42212000000027083 VRVoce retr.9833Totale Fondo TFR anno prec.                       10253520018     SELFBU0101        000000000DA016004            TR001               TR999                 000                 000                 000                 000                 000                                                               
1000000              201901      422120      51111000000000385 VRVoce retr.9838Trattenuta fondo pensione                         10253520018     SELFBU0101        000000000DA016004            TR001               TR999                 000                 000                 000                 000                 000                                                               
1000000              201901      422120      84111000000001067 VRVoce retr.9960Arrotond. mese pr.                                10253520018     SELFBU0101        000000000DA016004            TR001               TR999                 000                 000                 000                 000                 000                                                               
1000000              201901      841110      42212000000001380 VRVoce retr.9980Arrotond. del mese                                10253520018     SELFBU0101        000000000DA016004            TR001               TR999                 000                 000                 000                 000                 000                                                               
1000000              201901      841210      43114000000035753 I1INAIL mat.0000Contr.INAIL maturato                              10253520018     SELFBU0101        000000000DA016004            TR001               TR999                 000                 000                 000                 000                 000                                                               
1000000              201901      841110      42313000000226842 F1FE Mat.   0001Ferie                                             10253520018     SELFBU0101        000000000DA016004            TR001               TR999                 000                 000                 000                 000                 000                                                               
1000000              201901      841110      42313000000045329 F1FE Mat.   0002Permessi Ex Festivita'                            10253520018     SELFBU0101        000000000DA016004            TR001               TR999                 000                 000                 000                 000                 000                                                               
1000000              201901      841110      42313000000101168 F1FE Mat.   0003Permessi R.O.L.                                   10253520018     SELFBU0101        000000000DA016004            TR001               TR999                 000                 000                 000                 000                 000                                                               
1000000              201901      841110      42311000000241347 M1MA Mat.   0001Gratifica Natalizia                               10253520018     SELFBU0101        000000000DA016004            TR001               TR999                 000                 000                 000                 000                 000                                                               
1000000              201901      841110      42312000000243857 M1MA Mat.   000214ma Mensilita'                                   10253520018     SELFBU0101        000000000DA016004            TR001               TR999                 000                 000                 000                 000                 000                                                               
1000000              201901      841210      43213000000039971 F2FE Mat.Ctr0001Ferie                                             10253520018     SELFBU0101        000000000DA016004            TR001               TR999                 000                 000                 000                 000                 000                                                               
1000000              201901      841210      43213000000012941 F2FE Mat.Ctr0002Permessi Ex Festivita'                            10253520018     SELFBU0101        000000000DA016004            TR001               TR999                 000                 000                 000                 000                 000                                                               
1000000              201901      841210      43213000000029205 F2FE Mat.Ctr0003Permessi R.O.L.                                   10253520018     SELFBU0101        000000000DA016004            TR001               TR999                 000                 000                 000                 000                 000                                                               
1000000              201901      841210      43211000000069955 M2MA Mat.Ctr0001Gratifica Natalizia                               10253520018     SELFBU0101        000000000DA016004            TR001               TR999                 000                 000                 000                 000                 000                                                               
1000000              201901      841210      43212000000070108 M2MA Mat.Ctr000214ma Mensilita'                                   10253520018     SELFBU0101        000000000DA016004            TR001               TR999                 000                 000                 000                 000                 000                                                               
1000000              201901      841210      43213000000001540 F3FE Mat.Inl0001Ferie                                             10253520018     SELFBU0101        000000000DA016004            TR001               TR999                 000                 000                 000                 000                 000                                                               
1000000              201901      841210      43213000000000477 F3FE Mat.Inl0002Permessi Ex Festivita'                            10253520018     SELFBU0101        000000000DA016004            TR001               TR999                 000                 000                 000                 000                 000                                                               
1000000              201901      841210      43213000000001063 F3FE Mat.Inl0003Permessi R.O.L.                                   10253520018     SELFBU0101        000000000DA016004            TR001               TR999                 000                 000                 000                 000                 000                                                               
1000000              201901      841210      43211000000002536 M3MA Mat.Inl0001Gratifica Natalizia                               10253520018     SELFBU0101        000000000DA016004            TR001               TR999                 000                 000                 000                 000                 000                                                               
1000000              201901      841210      43212000000002577 M3MA Mat.Inl000214ma Mensilita'                                   10253520018     SELFBU0101        000000000DA016004            TR001               TR999                 000                 000                 000                 000                 000                                                               
1000000              201901      423130      84111000000103095 F4FE Liq.   0001Ferie                                             10253520018     SELFBU0101        000000000DA016004            TR001               TR999                 000                 000                 000                 000                 000                                                               
1000000              201901      423130      84111000000019478 F4FE Liq.   0002Permessi Ex Festivita'                            10253520018     SELFBU0101        000000000DA016004            TR001               TR999                 000                 000                 000                 000                 000                                                               
1000000              201901      423130      84111000000039351 F4FE Liq.   0003Permessi R.O.L.                                   10253520018     SELFBU0101        000000000DA016004            TR001               TR999                 000                 000                 000                 000                 000                                                               
1000000              201901      423120      84111000000028085 M4MA Liq.   000214ma Mensilita'                                   10253520018     SELFBU0101        000000000DA016004            TR001               TR999                 000                 000                 000                 000                 000                                                               
1000000              201901      432130      84121000000005825 F5FE Liq.Ctr0001Ferie                                             10253520018     SELFBU0101        000000000DA016004            TR001               TR999                 000                 000                 000                 000                 000                                                               
1000000              201901      432130      84121000000005843 F5FE Liq.Ctr0002Permessi Ex Festivita'                            10253520018     SELFBU0101        000000000DA016004            TR001               TR999                 000                 000                 000                 000                 000                                                               
1000000              201901      432130      84121000000011935 F5FE Liq.Ctr0003Permessi R.O.L.                                   10253520018     SELFBU0101        000000000DA016004            TR001               TR999                 000                 000                 000                 000                 000                                                               
1000000              201901      432120      84121000000008725 M5MA Liq.Ctr000214ma Mensilita'                                   10253520018     SELFBU0101        000000000DA016004            TR001               TR999                 000                 000                 000                 000                 000                                                               
1000000              201901      432130      84121000000000287 F6FE Liq.Inl0001Ferie                                             10253520018     SELFBU0101        000000000DA016004            TR001               TR999                 000                 000                 000                 000                 000                                                               
1000000              201901      432130      84121000000000298 F6FE Liq.Inl0002Permessi Ex Festivita'                            10253520018     SELFBU0101        000000000DA016004            TR001               TR999                 000                 000                 000                 000                 000                                                               
1000000              201901      432130      84121000000000597 F6FE Liq.Inl0003Permessi R.O.L.                                   10253520018     SELFBU0101        000000000DA016004            TR001               TR999                 000                 000                 000                 000                 000                                                               
1000000              201901      432120      84121000000000430 M6MA Liq.Inl000214ma Mensilita'                                   10253520018     SELFBU0101        000000000DA016004            TR001               TR999                 000                 000                 000                 000                 000                                                               
1000000              201901      841310      20393000000005945 ETEnte TFR  5151ALLEATA PREVID.-ALLEANZA ASS.                     10253520018     SELFBU0101        000000000DA016004            TR001               TR999                 000                 000                 000                 000                 000                                                               
1000000              201901      841310      51111000000178123 T1TFR Mat.  0000TFR- Quota maturata                               10253520018     SELFBU0101        000000000DA016004            TR001               TR999                 000                 000                 000                 000                 000                                                               
1000000              201901      511110      44513000000001004 T2Imp.c/DIT.0000TFR- Imp.sos.c/Ditta                              10253520018     SELFBU0101        000000000DA016004            TR001               TR999                 000                 000                 000                 000                 000                                                               
1000000              201901      841310      42314000000017870 T3TFRsuRatei0001Gratifica Natalizia                               10253520018     SELFBU0101        000000000DA016004            TR001               TR999                 000                 000                 000                 000                 000                                                               
1000000              201901      841310      42314000000018055 T3TFRsuRatei000214ma Mensilita'                                   10253520018     SELFBU0101        000000000DA016004            TR001               TR999                 000                 000                 000                 000                 000                                                               
1000000              201901      841310      51111000000005917 T4Riv.c/DIT.0000TFR- Riv.mat. c/Ditta                             10253520018     SELFBU0101        000000000DA016004            TR001               TR999                 000                 000                 000                 000                 000                                                               
1000000              201901      445130      44311000000004380 ISImpSostTFR0015C/dit.S.do Imp.sost.TFR                           10253520018     SELFBU0101        000000000DA016004            TR001               TR999                 000                 000                 000                 000                 000                                                               
1000000              201901      841110      42212000002950524 RERetribuz. 0001Retribuzioni                                      10253520018     SELFBU0101        000000000DA016004            TR001               TR999                 000                 000                 000                 000                 000                                                               
1000000              201901      841210      43119000000016800 EAEnte ditta2002FONDO "EST" (Ass.San.Terz/Tur)                    10253520018     SELFBU0101        000000000DA016004            TR001               TR999                 000                 000                 000                 000                 000                                                               
1000000              201901      841210      43116000000034000 EAEnte ditta5077Qu.A.S. - Quadri Turismo                          10253520018     SELFBU0101        000000000DA016004            TR001               TR999                 000                 000                 000                 000                 000                                                               
1000000              201901      841210      43118000000004676 EAEnte ditta5300Ente Bilat. Turismo                               10253520018     SELFBU0101        000000000DA016004            TR001               TR999                 000                 000                 000                 000                 000                                                               
1000000              201901      841210      43111000000975913 EAEnte ditta9001I.N.P.S.                                          10253520018     SELFBU0101        000000000DA016004            TR001               TR999                 000                 000                 000                 000                 000                                                               
1000000              201901      431110      43111000000005080 SAVersDifDit9001I.N.P.S.                                          10253520018     SELFBU0101        000000000DA016004            TR001               TR999                 000                 000                 000                 000                 000                                                               
1000000              201901      422120      43116000000005000 EDEnte dip. 5077Qu.A.S. - Quadri Turismo                          10253520018     SELFBU0101        000000000DA016004            TR001               TR999                 000                 000                 000                 000                 000                                                               
1000000              201901      422120      43118000000004674 EDEnte dip. 5300Ente Bilat. Turismo                               10253520018     SELFBU0101        000000000DA016004            TR001               TR999                 000                 000                 000                 000                 000                                                               
1000000              201901      422120      43111000000308315 EDEnte dip. 9001I.N.P.S.                                          10253520018     SELFBU0101        000000000DA016004            TR001               TR999                 000                 000                 000                 000                 000                                                               
1000000              201901      841210      43111000000001540 RAVersMPrDit9001I.N.P.S.                                          10253520018     SELFBU0101        000000000DA016004            TR001               TR999                 000                 000                 000                 000                 000                                                               
1000000              201901      422120      44311000000357758 FITr.fisc.  0000Trattenute fiscali                                10253520018     SELFBU0101        000000000DA016004            TR001               TR999                 000                 000                 000                 000                 000                                                               
1000000              201901      422120      84111000000000024 VRVoce retr.9960Arrotond. mese pr.                                10253520018     SELFBU0101        000000000DA016004            TR001               TR999STRBRU           000                 000                 000                 000                 000                                                               
1000000              201901      841110      42212000000000095 VRVoce retr.9980Arrotond. del mese                                10253520018     SELFBU0101        000000000DA016004            TR001               TR999STRBRU           000                 000                 000                 000                 000                                                               
1000000              201901      841210      43114000000005461 I1INAIL mat.0000Contr.INAIL maturato                              10253520018     SELFBU0101        000000000DA016004            TR001               TR999STRBRU           000                 000                 000                 000                 000                                                               
1000000              201901      841110      42313000000020701 F1FE Mat.   0001Ferie                                             10253520018     SELFBU0101        000000000DA016004            TR001               TR999STRBRU           000                 000                 000                 000                 000                                                               
1000000              201901      841110      42313000000005326 F1FE Mat.   0002Permessi Ex Festivita'                            10253520018     SELFBU0101        000000000DA016004            TR001               TR999STRBRU           000                 000                 000                 000                 000                                                               
1000000              201901      841110      42313000000011984 F1FE Mat.   0003Permessi R.O.L.                                   10253520018     SELFBU0101        000000000DA016004            TR001               TR999STRBRU           000                 000                 000                 000                 000                                                               
1000000              201901      841110      42311000000028628 M1MA Mat.   0001Gratifica Natalizia                               10253520018     SELFBU0101        000000000DA016004            TR001               TR999STRBRU           000                 000                 000                 000                 000                                                               
1000000              201901      841110      42312000000028628 M1MA Mat.   000214ma Mensilita'                                   10253520018     SELFBU0101        000000000DA016004            TR001               TR999STRBRU           000                 000                 000                 000                 000                                                               
1000000              201901      841210      43213000000005621-F2FE Mat.Ctr0001Ferie                                             10253520018     SELFBU0101        000000000DA016004            TR001               TR999STRBRU           000                 000                 000                 000                 000                                                               
1000000              201901      841210      43213000000001581 F2FE Mat.Ctr0002Permessi Ex Festivita'                            10253520018     SELFBU0101        000000000DA016004            TR001               TR999STRBRU           000                 000                 000                 000                 000                                                               
1000000              201901      841210      43213000000003558 F2FE Mat.Ctr0003Permessi R.O.L.                                   10253520018     SELFBU0101        000000000DA016004            TR001               TR999STRBRU           000                 000                 000                 000                 000                                                               
1000000              201901      841210      43211000000008497 M2MA Mat.Ctr0001Gratifica Natalizia                               10253520018     SELFBU0101        000000000DA016004            TR001               TR999STRBRU           000                 000                 000                 000                 000                                                               
1000000              201901      841210      43212000000008498 M2MA Mat.Ctr000214ma Mensilita'                                   10253520018     SELFBU0101        000000000DA016004            TR001               TR999STRBRU           000                 000                 000                 000                 000                                                               
1000000              201901      841210      43213000000000290-F3FE Mat.Inl0001Ferie                                             10253520018     SELFBU0101        000000000DA016004            TR001               TR999STRBRU           000                 000                 000                 000                 000                                                               
1000000              201901      841210      43213000000000082 F3FE Mat.Inl0002Permessi Ex Festivita'                            10253520018     SELFBU0101        000000000DA016004            TR001               TR999STRBRU           000                 000                 000                 000                 000                                                               
1000000              201901      841210      43213000000000184 F3FE Mat.Inl0003Permessi R.O.L.                                   10253520018     SELFBU0101        000000000DA016004            TR001               TR999STRBRU           000                 000                 000                 000                 000                                                               
1000000              201901      841210      43211000000000438 M3MA Mat.Inl0001Gratifica Natalizia                               10253520018     SELFBU0101        000000000DA016004            TR001               TR999STRBRU           000                 000                 000                 000                 000                                                               
1000000              201901      841210      43212000000000438 M3MA Mat.Inl000214ma Mensilita'                                   10253520018     SELFBU0101        000000000DA016004            TR001               TR999STRBRU           000                 000                 000                 000                 000                                                               
1000000              201901      423130      84111000000039639 F4FE Liq.   0001Ferie                                             10253520018     SELFBU0101        000000000DA016004            TR001               TR999STRBRU           000                 000                 000                 000                 000                                                               
1000000              201901      423130      84111000000015979 F4FE Liq.   0003Permessi R.O.L.                                   10253520018     SELFBU0101        000000000DA016004            TR001               TR999STRBRU           000                 000                 000                 000                 000                                                               
1000000              201901      432130      84121000000004743 F5FE Liq.Ctr0003Permessi R.O.L.                                   10253520018     SELFBU0101        000000000DA016004            TR001               TR999STRBRU           000                 000                 000                 000                 000                                                               
1000000              201901      432130      84121000000000245 F6FE Liq.Inl0003Permessi R.O.L.                                   10253520018     SELFBU0101        000000000DA016004            TR001               TR999STRBRU           000                 000                 000                 000                 000                                                               
1000000              201901      841310      51111000000023663 T1TFR Mat.  0000TFR- Quota maturata                               10253520018     SELFBU0101        000000000DA016004            TR001               TR999STRBRU           000                 000                 000                 000                 000                                                               
1000000              201901      511110      44513000000000427 T2Imp.c/DIT.0000TFR- Imp.sos.c/Ditta                              10253520018     SELFBU0101        000000000DA016004            TR001               TR999STRBRU           000                 000                 000                 000                 000                                                               
1000000              201901      841310      42314000000002120 T3TFRsuRatei0001Gratifica Natalizia                               10253520018     SELFBU0101        000000000DA016004            TR001               TR999STRBRU           000                 000                 000                 000                 000                                                               
1000000              201901      841310      42314000000002120 T3TFRsuRatei000214ma Mensilita'                                   10253520018     SELFBU0101        000000000DA016004            TR001               TR999STRBRU           000                 000                 000                 000                 000                                                               
1000000              201901      841310      51111000000002514 T4Riv.c/DIT.0000TFR- Riv.mat. c/Ditta                             10253520018     SELFBU0101        000000000DA016004            TR001               TR999STRBRU           000                 000                 000                 000                 000                                                               
1000000              201901      445130      44311000000002104 ISImpSostTFR0015C/dit.S.do Imp.sost.TFR                           10253520018     SELFBU0101        000000000DA016004            TR001               TR999STRBRU           000                 000                 000                 000                 000                                                               
1000000              201901      841110      42212000000356751 RERetribuz. 0001Retribuzioni                                      10253520018     SELFBU0101        000000000DA016004            TR001               TR999STRBRU           000                 000                 000                 000                 000                                                               
1000000              201901      841210      43116000000034000 EAEnte ditta5077Qu.A.S. - Quadri Turismo                          10253520018     SELFBU0101        000000000DA016004            TR001               TR999STRBRU           000                 000                 000                 000                 000                                                               
1000000              201901      841210      43118000000000425 EAEnte ditta5300Ente Bilat. Turismo                               10253520018     SELFBU0101        000000000DA016004            TR001               TR999STRBRU           000                 000                 000                 000                 000                                                               
1000000              201901      841210      43111000000107694 EAEnte ditta9001I.N.P.S.                                          10253520018     SELFBU0101        000000000DA016004            TR001               TR999STRBRU           000                 000                 000                 000                 000                                                               
1000000              201901      431110      43111000000003400 SAVersDifDit9001I.N.P.S.                                          10253520018     SELFBU0101        000000000DA016004            TR001               TR999STRBRU           000                 000                 000                 000                 000                                                               
1000000              201901      422120      43116000000005000 EDEnte dip. 5077Qu.A.S. - Quadri Turismo                          10253520018     SELFBU0101        000000000DA016004            TR001               TR999STRBRU           000                 000                 000                 000                 000                                                               
1000000              201901      422120      43118000000000425 EDEnte dip. 5300Ente Bilat. Turismo                               10253520018     SELFBU0101        000000000DA016004            TR001               TR999STRBRU           000                 000                 000                 000                 000                                                               
1000000              201901      422120      43111000000033563 EDEnte dip. 9001I.N.P.S.                                          10253520018     SELFBU0101        000000000DA016004            TR001               TR999STRBRU           000                 000                 000                 000                 000                                                               
1000000              201901      422120      44311000000093334 FITr.fisc.  0000Trattenute fiscali                                10253520018     SELFBU0101        000000000DA016004            TR001               TR999STRBRU           000                 000                 000                 000                 000                                                               
1000000              201901      841120      42212000000075423 VRVoce retr.0004STRAORDINARIO AL 20%                              10253520018     SELFBU0101        000000000DA016005            TR001               TR999                 000                 000                 000                 000                 000                                                               
1000000              201901      841120      42212000000374824 VRVoce retr.0006STRAORD.30%                                       10253520018     SELFBU0101        000000000DA016005            TR001               TR999                 000                 000                 000                 000                 000                                                               
1000000              201901      841120      42212000000015319 VRVoce retr.0043STR.60%                                           10253520018     SELFBU0101        000000000DA016005            TR001               TR999                 000                 000                 000                 000                 000                                                               
1000000              201901      422120      42413000000023800 VRVoce retr.0078CESSIONE QUOTA STIP.                              10253520018     SELFBU0101        000000000DA016005            TR001               TR999                 000                 000                 000                 000                 000                                                               
1000000              201901      422120      84113000000043376 VRVoce retr.0305TRATT.MANC.PREAVVISO                              10253520018     SELFBU0101        000000000DA016005            TR001               TR999                 000                 000                 000                 000                 000                                                               
1000000              201901      431110      42212000000059903 VRVoce retr.0657MALATTIA INPS 80%                                 10253520018     SELFBU0101        000000000DA016005            TR001               TR999                 000                 000                 000                 000                 000                                                               
1000000              201901      431110      42212000000011164 VRVoce retr.2550ALLATTAMENTO                                      10253520018     SELFBU0101        000000000DA016005            TR001               TR999                 000                 000                 000                 000                 000                                                               
1000000              201901      431110      84111000000001861 VRVoce retr.9090Magg.ratei per allattamento                       10253520018     SELFBU0101        000000000DA016005            TR001               TR999                 000                 000                 000                 000                 000                                                               
1000000              201901      431110      42212000000012163 VRVoce retr.9160Assegni familiari                                 10253520018     SELFBU0101        000000000DA016005            TR001               TR999                 000                 000                 000                 000                 000                                                               
1000000              201901      511110      42212000000298312 VRVoce retr.9833Totale Fondo TFR anno prec.                       10253520018     SELFBU0101        000000000DA016005            TR001               TR999                 000                 000                 000                 000                 000                                                               
1000000              201901      422120      51111000000000789 VRVoce retr.9838Trattenuta fondo pensione                         10253520018     SELFBU0101        000000000DA016005            TR001               TR999                 000                 000                 000                 000                 000                                                               
1000000              201901      422120      84111000000000860 VRVoce retr.9960Arrotond. mese pr.                                10253520018     SELFBU0101        000000000DA016005            TR001               TR999                 000                 000                 000                 000                 000                                                               
1000000              201901      841110      42212000000000605 VRVoce retr.9980Arrotond. del mese                                10253520018     SELFBU0101        000000000DA016005            TR001               TR999                 000                 000                 000                 000                 000                                                               
1000000              201901      841210      43114000000031535 I1INAIL mat.0000Contr.INAIL maturato                              10253520018     SELFBU0101        000000000DA016005            TR001               TR999                 000                 000                 000                 000                 000                                                               
1000000              201901      841110      42313000000106096 F1FE Mat.   0001Ferie                                             10253520018     SELFBU0101        000000000DA016005            TR001               TR999                 000                 000                 000                 000                 000                                                               
1000000              201901      841110      42313000000022389 F1FE Mat.   0002Permessi Ex Festivita'                            10253520018     SELFBU0101        000000000DA016005            TR001               TR999                 000                 000                 000                 000                 000                                                               
1000000              201901      841110      42313000000050374 F1FE Mat.   0003Permessi R.O.L.                                   10253520018     SELFBU0101        000000000DA016005            TR001               TR999                 000                 000                 000                 000                 000                                                               
1000000              201901      841110      42311000000120345 M1MA Mat.   0001Gratifica Natalizia                               10253520018     SELFBU0101        000000000DA016005            TR001               TR999                 000                 000                 000                 000                 000                                                               
1000000              201901      841110      42312000000120340 M1MA Mat.   000214ma Mensilita'                                   10253520018     SELFBU0101        000000000DA016005            TR001               TR999                 000                 000                 000                 000                 000                                                               
1000000              201901      841210      43213000000010630 F2FE Mat.Ctr0001Ferie                                             10253520018     SELFBU0101        000000000DA016005            TR001               TR999                 000                 000                 000                 000                 000                                                               
1000000              201901      841210      43213000000006695 F2FE Mat.Ctr0002Permessi Ex Festivita'                            10253520018     SELFBU0101        000000000DA016005            TR001               TR999                 000                 000                 000                 000                 000                                                               
1000000              201901      841210      43213000000015063 F2FE Mat.Ctr0003Permessi R.O.L.                                   10253520018     SELFBU0101        000000000DA016005            TR001               TR999                 000                 000                 000                 000                 000                                                               
1000000              201901      841210      43211000000035990 M2MA Mat.Ctr0001Gratifica Natalizia                               10253520018     SELFBU0101        000000000DA016005            TR001               TR999                 000                 000                 000                 000                 000                                                               
1000000              201901      841210      43212000000036001 M2MA Mat.Ctr000214ma Mensilita'                                   10253520018     SELFBU0101        000000000DA016005            TR001               TR999                 000                 000                 000                 000                 000                                                               
1000000              201901      841210      43213000000000534 F3FE Mat.Inl0001Ferie                                             10253520018     SELFBU0101        000000000DA016005            TR001               TR999                 000                 000                 000                 000                 000                                                               
1000000              201901      841210      43213000000000342 F3FE Mat.Inl0002Permessi Ex Festivita'                            10253520018     SELFBU0101        000000000DA016005            TR001               TR999                 000                 000                 000                 000                 000                                                               
1000000              201901      841210      43213000000000771 F3FE Mat.Inl0003Permessi R.O.L.                                   10253520018     SELFBU0101        000000000DA016005            TR001               TR999                 000                 000                 000                 000                 000                                                               
1000000              201901      841210      43211000000001838 M3MA Mat.Inl0001Gratifica Natalizia                               10253520018     SELFBU0101        000000000DA016005            TR001               TR999                 000                 000                 000                 000                 000                                                               
1000000              201901      841210      43212000000001846 M3MA Mat.Inl000214ma Mensilita'                                   10253520018     SELFBU0101        000000000DA016005            TR001               TR999                 000                 000                 000                 000                 000                                                               
1000000              201901      423130      84111000000086334 F4FE Liq.   0001Ferie                                             10253520018     SELFBU0101        000000000DA016005            TR001               TR999                 000                 000                 000                 000                 000                                                               
1000000              201901      423130      84111000000026280 F4FE Liq.   0002Permessi Ex Festivita'                            10253520018     SELFBU0101        000000000DA016005            TR001               TR999                 000                 000                 000                 000                 000                                                               
1000000              201901      423130      84111000000145328 F4FE Liq.   0003Permessi R.O.L.                                   10253520018     SELFBU0101        000000000DA016005            TR001               TR999                 000                 000                 000                 000                 000                                                               
1000000              201901      423120      84111000000029050 M4MA Liq.   000214ma Mensilita'                                   10253520018     SELFBU0101        000000000DA016005            TR001               TR999                 000                 000                 000                 000                 000                                                               
